:020000040800F2
:10000000E0A600204927000881F0000835270008F5
:100010003527000835270008352700083527000850
:100020000000000000000000000000000928000897
:100030003527000800000000A92700089184000867
:10004000A9290008A9290008A9290008A929000848
:10005000A9290008A9290008A9290008A929000838
:10006000A9290008A9290008A9290008A929000828
:10007000A9290008A9290008A9290008A929000818
:10026C0080F0004002E000BF81F0004142001FBF5F
:10027C005FEA410392EA030F7FEA226C7FEA236C68
:10028C006AD04FEA1262D2EB1363C1BFD21841405D
:10029C0048404140B8BF5B42192B88BF704710F0F3
:1002AC00004F40F4000020F07F4018BF404211F096
:1002BC00004F41F4000121F07F4118BF494292EAFE
:1002CC00030F3FD0A2F1010241FA03FC10EB0C002A
:1002DC00C3F1200301FA03F100F0004302D54942B7
:1002EC0060EB4000B0F5000F13D3B0F1807F06D364
:1002FC0040084FEA310102F10102FE2A51D2B1F15C
:10030C00004F40EBC25008BF20F0010040EA030050
:10031C007047490040EB0000013A28BFB0F5000FD0
:10032C00EDD2B0FA80FCACF1080CB2EB0C0200FA86
:10033C000CF0AABF00EBC25052421843BCBFD040D5
:10034C001843704792F0000F81F4000106BF80F44F
:10035C0000000132013BB5E74FEA41037FEA226C12
:10036C0018BF7FEA236C21D092EA030F04D092F0DD
:10037C00000F08BF0846704790EA010F1CBF002011
:10038C00704712F07F4F04D1400028BF40F000406E
:10039C00704712F100723CBF00F50000704700F08E
:1003AC00004343F0FE4040F4000070477FEA2262B5
:1003BC0016BF08467FEA23630146420206BF5FEA86
:1003CC00412390EA010F40F4800070474FF0000386
:1003DC0004E000BF10F0004348BF40425FEA000C4D
:1003EC0008BF704743F0964301464FF000001CE0F5
:1003FC0050EA010208BF70474FF000030AE000BF4B
:10040C0050EA010208BF704711F0004302D5404288
:10041C0061EB41015FEA010C02BF844601460020FA
:10042C0043F0B64308BFA3F18053A3F50003BCFA15
:10043C008CF2083AA3EBC25310DB01FA02FC6344C2
:10044C0000FA02FCC2F12002BCF1004F20FA02F2C9
:10045C0043EB020008BF20F00100704702F12002BC
:10046C0001FA02FCC2F1200250EA4C0021FA02F21D
:10047C0043EB020008BF20EADC7070474FF0FF0C22
:10048C001CEAD0521EBF1CEAD15392EA0C0F93EA1D
:10049C000C0F6FD01A4480EA010C400218BF5FEABF
:1004AC0041211ED04FF0006343EA501043EA511132
:1004BC00A0FB01310CF00040B1F5000F3EBF49002C
:1004CC0041EAD3715B0040EA010062F17F02FD2A30
:1004DC001DD8B3F1004F40EBC25008BF20F0010013
:1004EC00704790F0000F0CF0004C08BF49024CEA2A
:1004FC00502040EA51207F3AC2BFD2F1FF0340EABC
:10050C00C250704740F400004FF00003013A5DDC2C
:10051C0012F1190FDCBF00F000407047C2F100026D
:10052C00410021FA02F1C2F1200200FA02FC5FEA5A
:10053C00310040F1000053EA4C0308BF20EADC70A4
:10054C00704792F0000F00F0004C02BF400010F416
:10055C00000F013AF9D040EA0C0093F0000F01F0C3
:10056C00004C02BF490011F4000F013BF9D041EAE5
:10057C000C018FE70CEAD15392EA0C0F18BF93EAE7
:10058C000C0F0AD030F0004C18BF31F0004CD8D111
:10059C0080EA010000F00040704790F0000F17BF98
:1005AC0090F0004F084691F0000F91F0004F14D0DE
:1005BC0092EA0C0F01D142020FD193EA0C0F03D136
:1005CC004B0218BF084608D180EA010000F0004039
:1005DC0040F0FE4040F40000704740F0FE4040F414
:1005EC00400070474FF0FF0C1CEAD0521EBF1CEAB3
:1005FC00D15392EA0C0F93EA0C0F69D0A2EB0302D1
:10060C0080EA010C49024FEA402037D04FF080536A
:10061C0043EA111143EA10130CF000408B4238BF2F
:10062C005B0042F17D024FF4000C8B4224BF5B1A3D
:10063C0040EA0C00B3EB510F24BFA3EB510340EA8B
:10064C005C00B3EB910F24BFA3EB910340EA9C0039
:10065C00B3EBD10F24BFA3EBD10340EADC001B01A9
:10066C0018BF5FEA1C1CE0D1FD2A3FF650AF8B424D
:10067C0040EBC25008BF20F0010070470CF0004C5A
:10068C004CEA50207F32C2BFD2F1FF0340EAC25085
:10069C00704740F400004FF00003013A37E792F046
:1006AC00000F00F0004C02BF400010F4000F013AA4
:1006BC00F9D040EA0C0093F0000F01F0004C02BF9F
:1006CC00490011F4000F013BF9D041EA0C0195E708
:1006DC000CEAD15392EA0C0F08D142027FF47DAFA1
:1006EC0093EA0C0F7FF470AF084676E793EA0C0F91
:1006FC0004D14B023FF44CAF08466EE730F0004C8F
:10070C0018BF31F0004CCAD130F000427FF45CAF1E
:10071C0031F000437FF43CAF5FE700BF42000ED2E4
:10072C00B2F1FE4F0BD34FF09E03B3EB126209D420
:10073C004FEA002343F0004323FA02F070474FF0D6
:10074C000000704712F1610F01D1420202D14FF04B
:10075C00FF3070474FF00000704700BF53B94AB9E3
:10076C00002908BF00281CBF4FF0FF314FF0FF30AD
:10077C0000F00CB8ADF1080C6DE904CE00F022F8D5
:10078C00DDF804E0DDE9022304B07047704700BFD8
:10079C0010F8012B11F8013B012A28BF9A42F7D01F
:1007AC00D01A7047034611F8012B03F8012B002ACD
:1007BC00F9D17047034613F8012B002AFBD1181A04
:1007CC00013870472DE9F04786468C460846089E4E
:1007DC00154674461946002B40F0C1808542B2FA8A
:1007EC0082F245D94AB1C2F1200300FA02FC9540CD
:1007FC0094402EFA03F343EA0C0C4FEA154EA8B2C0
:10080C00230CBCFBFEF80EFB18CC08FB00F943EAEA
:10081C000C43994528D9EB1808F1FF3704D29945B8
:10082C0002D9A8F102072B44A3EB0903A4B2B3FB32
:10083C00FEFC0EFB1C330CFB00F044EA0344A0420C
:10084C0014D92C190CF1FF3304D2A04202D9ACF10B
:10085C0002032C44241A43EA07401EB1D44000235F
:10086C0034607360BDE8F0874746DDE76346F1E727
:10087C0092BB431B01214FEA154EAFB2200CB3FBC8
:10088C00FEFC0EFB1C330CFB07F840EA03439845B7
:10089C0061D9EB180CF1FF3004D2984502D9ACF1B8
:1008AC0002002B44A3EB0803A4B2B3FBFEFC0EFB2B
:1008BC001C330CFB07F744EA0344A7424DD92C190F
:1008CC000CF1FF3304D2A74202D9ACF102032C4441
:1008DC00E41B43EA0040C0E7C2F12003954094407A
:1008EC0020FA03F12EFA03F34FEA154E9040AFB203
:1008FC000343B1FBFEFC0EFB1C10190C0CFB07F8A0
:10090C0041EA0041884522D969180CF1FF3004D224
:10091C00884502D9ACF102002944A1EB08019BB235
:10092C00B1FBFEFC0EFB1C110CFB07F743EA014369
:10093C009F420ED9EB180CF1FF3104D29F4202D921
:10094C00ACF102012B44DB1B41EA004193E760460A
:10095C00E3E76146F7E76046A4E76346B8E78342FE
:10096C0006D916B9002108467CE7C6E900E0F9E78C
:10097C00B3FA83F78FB9834201D3724508D8BEEB23
:10098C00020460EB030301209C461EB9002169E7B9
:10099C003846FAE7C6E9004CF8E7C7F1200CBB4033
:1009AC000EFA07F522FA0CF42EFA0CF1BA401C439D
:1009BC0020FA0CF3B8404FEA144901431FFA84FEA5
:1009CC00B3FBF9F809FB18300B0C08FB0EFA43EAE1
:1009DC0000439A4540D9E31808F1FF3004D29A45F8
:1009EC0002D9A8F102002344A3EB0A0389B2B3FB9A
:1009FC00F9F809FB183308FB0EFE41EA03418E455A
:100A0C002CD9611808F1FF3304D28E4502D9A8F114
:100A1C000203214443EA0040A1EB0E01A0FB029823
:100A2C004145CE46434602D306D14D4504D201384A
:100A3C00B9EB020E68EB0403002EA7D0B5EB0E0247
:100A4C0061EB030101FA0CFC22FA07F3F9404CEAC2
:100A5C000303C6E9003199E74046C5E74346D9E7A9
:100A6C0090B583B002AF0321234A24480EF0D7F986
:100A7C004FF40072AA21224812F0B1FE0123002289
:100A8C001F4920480EF0C0FA034603211E4A1B489A
:100A9C000EF0CEF94FF4007119480FF09AFE0122B6
:100AAC0000241346164810F8011BAA291ED0F9B9C8
:100ABC000B460134B4F5007FF5D1032100920F48A9
:100ACC00124A0EF0BFF988B002AA114B94835361FD
:100ADC00104B9361104B42F8103F094B0F490748DC
:100AEC0000F0ACFF00200437BD4690BD0022E0E7CB
:100AFC0000231A46DDE700BF924701087441010844
:100B0C0080060020A3470108A6470108C447010836
:100B1C00FF5A0108E547010803000001C01C00044E
:100B2C0010B508480EF048FA044618B9BDE8104054
:100B3C00FFF796BF01210346034A04480EF078F9EB
:100B4C00204610BDA3470108FE4701087441010867
:100B5C0070B5324932480DF028FE0321314A324833
:100B6C000EF05DF931480EF041FA0346304A03218C
:100B7C002D480EF05DF92F492F480EF0B3FC2F498C
:100B8C002D480EF0AFFC2E492B480EF0ABFC2D4936
:100B9C0029480EF0A7FC00212B4A274803F0EAFE57
:100BAC0001212A4A244803F0E5FE002301221946BC
:100BBC00214804F06FF80122002311461E4804F06E
:100BCC0069F81D4802F088FB044638B10346204AF8
:100BDC00012115480EF02CF9204670BD164802F084
:100BEC00B9FB044610B11B4A0346F1E703211A4A2C
:100BFC000D480EF014F90D4E184D0B4C00214CF213
:100C0C00503012F0E4FC30460EF0F0F903460321AC
:100C1C002A4620460EF00CF9F0E700BF80060020B3
:100C2C00174801082B48010874410108A347010823
:100C3C003F480108A0000020CC05002088000020BF
:100C4C0070000020580000204400002030000020DC
:100C5C0073480108874801089D480108AB48010802
:100C6C002DE9F04F91B0009302F004030293C2F30C
:100C7C00C2030133840705460E46DDF868800392F3
:100C8C00059340F0BB81041D30B1072909D86FF0E2
:100C9C001B0011B0BDE8F08F01F007063444C6F11B
:100CAC000806009B4FF000094FF0040A591E4FF044
:100CBC00FF334F460193CB465346CDF810900DB100
:100CCC00009A22600598002800F3E8809848009A62
:100CDC00824203D397488242C0F0E080039AA4EB8F
:100CEC00050E92074FEA9E0000F103810F2F00F2D0
:100CFC00B180002D00F0058107F140020DEB020CD4
:100D0C00019A0CF8200C0CF8102C0498013004906B
:100D1C00E7E07A285DD84B280ED8472859D82928DF
:100D2C002DD8252852D054D820287AD02338D0F169
:100D3C00000B4BEB000B74E04C382E2849D8DFE845
:100D4C0000F07048484848484848484848484B488C
:100D5C004848484848484859484B4B595959704B92
:100D6C006D487048184B184848827F4B48484B4890
:100D7C007F0000204FF0000B4FF0040A38E00122F6
:100D8C002A38C0B202FA00F010EA0E0F49D110F066
:100D9C00625C2FD110EA020B43D06046013C5444F4
:100DAC00B4FBFAF40AFB04F4002D61D0A3EB050CA0
:100DBC00A444B4453FF66BAF002868D1042B47D14F
:100DCC0058F8043B2360042304342AE0019A013AC6
:100DDC0001924FF0000B24E011F8010C6C2834D177
:100DEC00002011F8023C83466C2BC5D14FF0080A49
:100DFC005346D3E708F1070828F00708073424F016
:100E0C000704F8E802AB35B106982044B0423FF62F
:100E1C003EAFC4E900AB4FF0000B08344FF0080AAA
:100E2C00534611F8010F002878D0BBF1000F7FF466
:100E3C0070AF2528F5D14FF0010B019B01330193C5
:100E4C004FF0040AECE7584694E700208346A5E7E8
:100E5C00082B02D06FF015001BE708F1070828F0EB
:100E6C000708F8E80223C4E9002308230834D8E76C
:100E7C0068B9042B02D108F10408A4E7082BE9D1C6
:100E8C0008F1070828F0070808F10808EDE7059AAB
:100E9C00013A059258F8042B009210E7039A900738
:100EAC0020D54FF0010CA4EB050E4FEA9E00BEF5C9
:100EBC00007FCFD20F2FCDD8F5B107F140020DEB4B
:100ECC00020E019AC0B20EF8200C0EF8102CBCF1D8
:100EDC00000F3FF41AAF60F07F000EF8200C09F100
:100EEC0001090137C5F108024FF6DA7E0434069287
:100EFC0097E74FF0000CDAE7BCF1000F01D0013698
:100F0C00EFE7029802360028EBD10098CDE90631C4
:100F1C00FFF750FCDDE906310644E2E7631BB3F54D
:100F2C00806F97D245B9A6F10804E018B1E600BF6E
:100F3C0060390108C86A0108029A9B0828602B7066
:100F4C009DF81030C2B1EB7085F80290B9F1000F2A
:100F5C0005D0002208A8C5F1010C97420ED14FF024
:100F6C00000AC5F101030DF1200801930DF1300BBE
:100F7C00574512D1601B8CE66B70E5E710F8013B0E
:100F8C00190608D50CEB040EB64503F07F033FF6AB
:100F9C007EAE04F8013B0132DFE7B9F1000F03D05C
:100FAC0098F90020002A17DB029BD3B11AF80B200A
:100FBC0004F8012B0022019B18191044B0423FF693
:100FCC0066AE98F80000009904F8010B20460392D5
:100FDC0012F0F8FB039A14440AF1010A08F1010813
:100FEC00C6E798F8002055F822300093029B009831
:100FFC0045F82230FFF7DEFB421CDCE76FF00D00FA
:10100C0047E600BF2DE9F04F97B000AFD7F880B09E
:10101C003B62CBF3C0030446894690F802A0FA6207
:10102C00BB6141B9457800780AEB800020444D45FE
:10103C0017D8A0EB0409E378FB61BAF1000F02D0DA
:10104C001BF0010F16D1FB6953BBFB6A1BB1494660
:10105C0020463A6A98474D4628465C37BD46BDE85F
:10106C00F08F461C3046FFF7A5FB0130304409F1E8
:10107C000109DCE7626823787A62FA6A990079617F
:10108C0004EB8301002A40F001810E464FF000086A
:10109C004D4601EB0A094E454CD101EB0A0610E016
:1010AC001BF0020FD1D023789A007A61626804EBAE
:1010BC0083017A62FA6A002A77D14D46904601EB99
:1010CC000A061BF0050F0CBF02230123FB62FB6910
:1010DC0006EB430A0BF00203BB625645BCD016F874
:1010EC00021B16F8013C54F82390994B994502D3F6
:1010FC00984B994536D3BB69002B40D0786A0DF0DC
:10110C002DFB00283BD0E9468AB06A46924B5361CE
:10111C007B6AC2E906314FF4007313848F4B42F89B
:10112C00103F00234FF412518D4800F087FC023D14
:10113C00CD46D2E716F8013BF96254F82300FFF7CD
:10114C0039FBD7F88430F96A01304BB1D7F88830C5
:10115C0098453EBFD7F8843023F8180008F10108F1
:10116C00054498E7BB6923B1786A0DF0F7FA0028BB
:10117C00C9D11BF0010F05D1FB6AED1AADE7BB6AB3
:10118C00002BAAD04846FFF715FBD7F8843053B193
:10119C00D7F8883098453FBFD7F88420431C22F8F5
:1011AC00183008F10108054497E7BAF1000F73D025
:1011BC001BF0040673D0D046002607F148005246B7
:1011CC003B61B96212F0FEFAB96A3B6901EB0A02A3
:1011DC00BA62FA69F9695200FA60BA6A02EB410222
:1011EC003A610BF00202BA603A69B96A8A4258D184
:1011FC0062781BF0020F18BF00217A6208BF4FEA19
:10120C005801B2181BF0010FD2B240F09F801BF0B6
:10121C00040F14BF40460020BB616270A070E170E7
:10122C0020463A6A7969FB6A9847051EFFF614AFA7
:10123C00BB69414623707B6A3A6A6370FB6984F828
:10124C0002A0E37007F14800FB6A9847B0F1000870
:10125C00C0F2BA807B69A9EB0A01C91AFB683A6A29
:10126C00C91AD7E90A0398470028C0F2AF804FF09B
:10127C00000BA84408EB000507F1380AB34571D3FD
:10128C0000213A6A0846FB6A9847E5E656464FF055
:10129C00000807F1380092E75646D04696E7B0466C
:1012AC0094E7BA6A12F8021B12F8015CBA6254F89D
:1012BC002500274A904202D3264A90421ED3BA698F
:1012CC0032B1786A7B600DF049FA7B6800288BD1CB
:1012DC00BA6802BB08F1280207F1300C08F10100D2
:1012EC00944407F1580208F1020852FA80F00CF805
:1012FC00101C5FFA88F800F8105C75E7BA693AB10F
:10130C00786A7B600DF02AFA7B6800287FF46CAF5A
:10131C001BF0010F09D006F1280207F13000711CF7
:10132C00161806F8205CCEB25EE71BF0040F3FF4F3
:10133C005BAF08F1280207F1300008F1010102EB64
:10134C00000808F8105C5FFA81F84DE7002063E7AD
:10135C0060390108C86A0108EE4801080400000160
:10136C003C4101081BF80A3054F8239087F83730B9
:10137C00D7F884302BB3D7F888309B4521D2D7F8D7
:10138C00843033F81B8001213A6AFB6A07F137007D
:10139C00984700281ADB0544B8F1000F06D14846DF
:1013AC00FFF708FA00F101081FFA88F84146484691
:1013BC003A6AFB6A9847002808DB05440BF1010BDD
:1013CC005CE74FF00008DEE7454645E6054643E698
:1013DC00014B1860704700BFB800002080B505466F
:1013EC000E46174698460CF0D3F8034612F0A8FAAE
:1013FC000446DFF81890424649F80030394630462A
:10140C00A84754F8090001F0B3F900BF0800000028
:10141C00034A0020536823F002035360704700BF57
:10142C00004004E010B5EFF31184102383F312880D
:10143C00BFF36F8F084803683BB9084A916A41F0C3
:10144C0001019162916AC907FCD50133036084F3F1
:10145C001188BFF36F8F10BD4C240020000802468A
:10146C0010B5EFF31184102383F31288BFF36F8F41
:10147C0011490B68A3B90122104BD3E8EF1F0029C7
:10148C0003D1C3E8E02F0028F7D104D102210C4A84
:10149C000C480DF0C4FC84F31188BFF36F8F10BDA2
:1014AC00012B08BF084803F1FF3302BF826A22F008
:1014BC00010282620B60EEE74C24002048240020DD
:1014CC00AD490108AC4101080008024607B506F019
:1014DC0067FA0E4B0E4A1A600E4BD3F8942042F06A
:1014EC000402C3F89420D3F8943003F0040301935E
:1014FC00019B094BDA6A42F00102DA629A6822F027
:10150C0002029A6003B05DF804FB00BFB803002030
:10151C0000093D00000C0246000802462DE9F04788
:10152C00044607464FF00109DFF8508014B93846DD
:10153C00BDE8F08794FAA4F5B5FA85F509FA05F338
:10154C002E0108EB05156FEA030A24EA03042B7B32
:10155C00002BEBD058F806301B694BB94644736826
:10156C0004222846196807EA0A070DF0E8FBDDE7B4
:10157C00284698470028D9D1F0E700BF344201082B
:10158C0030B5002289B00F490F4812F0ECF8002258
:10159C0000230024CDE906230E230C4DCDE90334A2
:1015AC004FF440722846CDE90144094B0949009497
:1015BC000BF03EFD0849284611F058FF204609B0B3
:1015CC0030BD00BFE9150008081B00208016002064
:1015DC00ED180008A0680020EE49010801480BF046
:1015EC00E3BA00BF740500202DE9F047804620487F
:1015FC000F460DF080FB0646002832D00025284609
:10160C00BDE8F087237B83B12368DB680BB12046F0
:10161C009847636883F8069023681B69CBB96368A5
:10162C000422204619680DF08AFB0136103454450B
:10163C00E8D3B8F1000FE2D0002DDFD02846FFF739
:10164C006DFF0546002FF7D00021642011F0BFFF7D
:10165C00F2E7204698470028E1D009FA06F31D432B
:10166C00E3E705464FF00109024CDFF80CA0DEE77A
:10167C00602400203442010844420108014B53F815
:10168C00200070478042010808B5034608462BB17C
:10169C00044A136000F068FC002008BD6FF01500D0
:1016AC00FBE700BFBC00002010B5044C237813B935
:1016BC0003480BF079FA0123237010BD9A280020FF
:1016CC007405002010B5044609480DF014FB3CB11C
:1016DC00084BD3E8EF1F0139C3E8E21F002AF8D109
:1016EC00054812F04CF8BDE8104004480BF05CBA09
:1016FC00582400205C240020081B002074050020C6
:10170C0000200146034BD3E8EF0FC3E8E21F002A89
:10171C00F9D170475824002070B5FFF7F1FF05464A
:10172C00074C084EB44200D370BD63685B792BB193
:10173C0023685B6813B12946204698471034F1E7BB
:10174C00344201084442010810B5044C04492046B7
:10175C000DF03DF9034B1C6010BD00BF6C04002064
:10176C006C4201085024002000230D4A10B5137060
:10177C000C4A4FF47A7113600B4A0C481360FFF754
:10178C0083FFFFF7E1FF0A4B0A4918468B4200D34F
:10179C0010BD1A1A5C681211013222711033F5E770
:1017AC009B280020582400205C24002015ED000804
:1017BC00344201084442010801460022002301483A
:1017CC000DF026B96C04002001480DF0BFB900BF24
:1017DC006C040020024B014618680DF012BA00BFD1
:1017EC005024002001480DF047BA00BF6C040020C3
:1017FC0070B5244B1878002842D0FFF7E5FF05465A
:10180C0000283AD1204B214C1B68002B12DD11F023
:10181C0062FF0A220023FEF7A1FFD4E90032C01AAE
:10182C0040F2E93361EB0201984271F1000101D3FE
:10183C00FFF772FFD4E9003213F57A7342F100021C
:10184C00C4E90032BDE87040FFF7CCBF63685B7938
:10185C0023B12368294620461B6898471034B442AC
:10186C00F4D32846FFF7B6FF094BD3E8EF1F013935
:10187C00C3E8E21F002AC5D0F7E7064C064EEEE798
:10188C0070BD00BF9A28002058240020001B0020A7
:10189C005C240020344201084442010870B50D4D0F
:1018AC00297861B90120FFF79FFE0B4C0B4EB44217
:1018BC0006D3FFF79DFF0028FBD101232B7070BDD1
:1018CC0063685B791BB1236820469B68984710348A
:1018DC00EDE700BF9B280020344201084442010878
:1018EC0000212DE9F0470846FFF77EFE044658B369
:1018FC004FF4FA784FF0000912F022F81B4B1C4AF7
:10190C001B58136033B11B4B1B68092B02DD1A48A3
:10191C000BF04AF90025194FDFF85CA044B12046C2
:10192C00FFF7FCFD044618B94FF0FF384FF0FF39B4
:10193C00FFF75EFF064628B9B5B942464B465046FE
:10194C000BF066F93546E9E74FF0FF384FF0FF39F9
:10195C00D2E72B689B691BB1002228461146984799
:10196C001035BD42F5D3E8E7054DFAE70800000055
:10197C00542400205C2400207405002044420108FB
:10198C003442010813B518480DF0B5F9174B1B7804
:10199C0073B1EFF31184102383F31288BFF36F8FAD
:1019AC00FFF726FF84F31188BFF36F8F02B010BDD1
:1019BC000F4B1B68002BF9D050B9002200230D48A7
:1019CC00CDE9002342F2107200230CF0D3F8EDE7BE
:1019DC000928EBD1074811F0D2FE074802B0BDE848
:1019EC0010400BF0E1B800BF5C2400209B280020C5
:1019FC0054240020081B00207405002010B5064B51
:101A0C0004461B6898472146A06004480DF07FF8F7
:101A1C00BDE81040FFF7B6BFBC0000206C040020EE
:101A2C00044A054B9B1AB1EBD30F34BF52F831006B
:101A3C000020704734410108344201082DE9F04F71
:101A4C008FB0C1F34A2804AF0D469146B8607B6055
:101A5C000C0DB8F1000F63D000264FF0040B4FF0C3
:101A6C000A0A07F11403C7F80C80C7E907667E62FF
:101A7C000193CDF808B0CDF800A007F11C03324655
:101A8C004846F968FFF7BEFAB0F5006F03461CD361
:101A9C006C468AB0D9F8041004AB26481A46C3E940
:101AAC00050140F2FF71D9614FF400711984224B8A
:101ABC0042F8103F4FF4125133462048FFF7BEFF57
:101ACC00A5462C37BD46BDE8F08FC0F30A0804F1DB
:101ADC001700184420F0070080083B60FFF76CFEED
:101AEC0068F35325044690B13B6800F11001C7E937
:101AFC00083607F11403F961CDE900A3CDF808B05D
:101B0C0048460F4AF96807F11C03FFF77BFA68F3A4
:101B1C0053252A4620467B68B9680DF030F9D0E78A
:101B2C0004F1170020F007008008FFF745FE04467B
:101B3C00EDE700BF034A0108040000015C41010805
:101B4C005DED00082DE9F04F87B00446DDE9105A31
:101B5C00DDE91279934698460391BFB13B46524654
:101B6C0010210020CDF80090CDF81490FFF778F8F4
:101B7C00B0F5006F06460AD340F2FF730221174AF4
:101B8C00174807B0BDE8F04F0DF052B93E4605F1CD
:101B9C001700304420F007008008FFF70DFE04F01A
:101BAC0007040BF0070BE40044EA8B1444EA4624C8
:101BBC0044EA0554054640B13FB13B4652463146D6
:101BCC00CDF800901030FFF74BF8434622462846DC
:101BDC00039907B0BDE8F04F0DF0D1B8424A0108A7
:101BEC005C410108406820B1034BC01A40F3CF00A0
:101BFC0070474FF0FF307047344101080EB403B505
:101C0C0003AB53F8042B01460448019301F0FAF896
:101C1C0002B05DF804EB03B0704700BF9FEE000804
:101C2C00CA0605D48B064CBF02490349FFF7E6BF31
:101C3C00704700BF7B4A01087A4A01082DE9F04F32
:101C4C0089B09B46149B9DF84CA00693159B0446AB
:101C5C000593169B0D469046179E0493BAF1000F00
:101C6C0000F09D8006F4807307930DF066F806F083
:101C7C000209024600283ED020469149FFF7BEFFDC
:101C8C000746B9F1000F08D016F0440F35D12A469B
:101C9C0020468C49FFF7B2FF074406F0010353B10D
:101CAC00894B204653F82A20884B8949002A08BFC3
:101CBC001A46FFF7A3FF06F48073002B49D006F0F9
:101CCC000803002B63D1B8F1000F66D042462046C2
:101CDC008049FFF793FF0546069B3D44002B6DD1D1
:101CEC00049B002B73D1F30700F1E48031462046AE
:101CFC00FFF796FFD8E00746C3E7774B1868002834
:101D0C00CAD0764B4FF47A791B684FF03C0CB5FB7C
:101D1C00F3F5B5FBF0F14FF4616300FB115509FBD2
:101D2C0005F5B1FBF3F2B5FBF0FE03FB121100FB62
:101D3C001E55B1FBFCF309FB05F5B5FBF0F50CFBEF
:101D4C00131120460091CDE901E56549FFF756FFD7
:101D5C00A2E706F00803EBB1624B204653F82A20A9
:101D6C006149FFF74BFF0546B8F1000F05D042461D
:101D7C0020465849FFF742FF0544BBF1000FABD09A
:101D8C005A4620465949FFF739FF0544A4E74FF05E
:101D9C00000BE1E706F00805E6E745469CE7BBF1DA
:101DAC00010F069B06D1002B64D1049B002B7BD02A
:101DBC0000250CE0002BF8D04D485CE04D48069B0C
:101DCC0022464D490CF099FC049B002B68D0DFF89F
:101DDC002C81DFF82C91049F3146102F204628BF10
:101DEC0010274FF0000BFFF71BFF5D4545DC059BF3
:101DFC00494620461A78FFF701FF4FF0010B1BF004
:101E0C00070F03D141462046FFF7F8FE5F453BD94B
:101E1C00059B4946204613F80B20FFF7EFFE0BF10C
:101E2C00010BBBF1100FEAD14FF0000B20463549E6
:101E3C00FFF7E4FE5A46059B20469A5CA2F120016E
:101E4C005F2928BF2E223049FFF7D8FE0BF1010B7A
:101E5C00BBF1100F1DD01BF0070F03D141462046DC
:101E6C00FFF7CCFE5F455A46E5D841462046FFF7C2
:101E7C00C5FEEBE71F485546A1E741462046FFF754
:101E8C00BDFE0BF1010BB0E720462049FFF7B6FE73
:101E9C00C5E7059B3B440593049BDB1B04939AD13C
:101EAC00BAF1000F7FF41FAF204609B0BDE8F04F28
:101EBC000CF0E2BF2046054A0549FFF79FFE15E7E7
:101ECC00824A0108864A0108904201087D4A0108AD
:101EDC00FF5A0108AB4A0108682400206424002042
:101EEC008F4A0108A4420108AF4A0108B54A01080B
:101EFC00CDEE00089FEE0008112E0008D248010814
:101F0C00BA4A0108C04A0108C24A0108D04801086F
:101F1C0042F20F7373B58B4228BF0B46056804461B
:101F2C00052168460D4A0BF0A7FE06466368284655
:101F3C000B225B680A490CF091FF636832466946D4
:101F4C0028465B680CF08AFF63681B2228465B6896
:101F5C0004490CF083FF02B070BD00BFD4660108C9
:101F6C00E14A0108C54A010800210123064A9042B2
:101F7C0006D8064A01B901231360054B1860704757
:101F8C00012140085B00F2E740420F00642400206E
:101F9C0068240020F8B50D460446064F4618B44296
:101FAC0001D12846F8BD14F8011BBB6801485B68D9
:101FBC009847F4E7F43B0108014B0360002070479D
:101FCC00EC4201082DE9F8430646FEF7F3FB054603
:101FDC00EFF31188102383F31288BFF36F8F114B2B
:101FEC001C68D3F804909C4208BF002434B988F3D1
:101FFC001188BFF36F8F2046BDE8F883A768384679
:10200C00FEF7D8FBA84206D12A463946304611F0D5
:10201C000BFC0028EBD04C4501D02468E6E70024EB
:10202C00E5E700BFC80000202DE9F0410E4615463B
:10203C00FFF7C8FF044628B3C3681BB31F690FB36F
:10204C00062E07D0072E20D02A4631463B46BDE847
:10205C00F0411847838A3BB92A463146B84750B9F4
:10206C00A38A0133A38206E04FF6FF72934204D099
:10207C000133A3820020BDE8F0810121114A1248EE
:10208C000CF0CDFE6FF01500F5E745B12A7832B1B2
:10209C000022828231462A461B699847EAE7A38AC6
:1020AC00012B08D12A4607212046B8470028E2D147
:1020BC00A38A013BD6E70BB1013BDAE70221034AC5
:1020CC00DDE700BF274B010844410108494B0108DB
:1020DC00F8B5044600AF08B1806840B91C4A1D48E9
:1020EC0001210CF09CFE6FF01500BD46F8BDFFF70A
:1020FC0069FF054608B1184AF1E7A082EFF3118693
:10210C00102383F31288BFF36F8F144B5A68C4E902
:10211C00003214605C60A3686C468AB06A46104951
:10212C0051611049C2E9061340F2013313840E4B7E
:10213C0042F8103F4FF4145103460648FFF77EFC5B
:10214C00A54686F31188BFF36F8F2846CDE700BFF5
:10215C00674B010844410108804B0108C80000206E
:10216C00A44B0108C64B01080400000108B5034844
:10217C00034A0021121A0CF075FF08BD80060020DE
:10218C00A0280020074808B5074A0849121A0CF085
:10219C006BFFBDE808400648064A0749121A0CF0C6
:1021AC0063BF00BF0000002078060020C86A010849
:1021BC000000002000000020C86A01082DE9F0474B
:1021CC0006460C4600AF002936D0D1E90012E9468C
:1021DC008AB06D46A3684FF0050AA8461F48C5E9AA
:1021EC000723C5E9050148F810AF002342464FF418
:1021FC0021511B48FFF722FCD4E90312CD46636939
:10220C00AD461848C5E90723C5E90501C5F810A076
:10221C00002342464FF421511148FFF70FFCCD46E5
:10222C00E3690121104A0E480CF002FEA36901215A
:10223C000E4A0B480CF0FCFD012E07D1EFF3058381
:10224C000B4A31460648103B0CF0F2FD2146304655
:10225C000AF0FCF8BD46BDE8F08700BFE04B010872
:10226C00944101080F4C01083E4C01084D4C0108EB
:10227C007B4C010830BFFFF7FDBF00BF2DE9F041DB
:10228C0005460B4EDFF82C80324606EB0807CC1BBC
:10229C002046094911F096FAA01942460021083C43
:1022AC0011F09DFA2C6707F10800BDE8F08100BF22
:1022BC00000000000800000044420108054B5A6968
:1022CC009B689A421FBF044A536843F08053536083
:1022DC00704700BF6428002000ED00E070B52A4C68
:1022EC0006460D4629482A490CF0CBFEA36ADB06AC
:1022FC0047D5264827490CF0C4FE1120A36A1C07B9
:10230C0004D5224824490CF0BCFE12201E4CA36AB2
:10231C00990712D521491D480CF0B3FE636BA26AD4
:10232C00120609D501211E4A18480CF081FD1EB178
:10233C00A36A23F08003A3621320134CA36ADE0765
:10234C0004D5124817490CF09CFE1420A36A9C0675
:10235C0004D50E4814490CF094FE15200A4B9A6AC9
:10236C00D10658BF9A6A9A6A920642BF5A6A22F4F8
:10237C0000525A629A6A42F0FF029A6200232B7052
:10238C0070BD1020BAE700BF00ED00E094410108D9
:10239C008E4C0108A44C0108D74C0108EA4C0108EA
:1023AC00024D0108184D0108374D010810B5244C99
:1023BC00244925480CF065FEA36A99013ED52248B4
:1023CC0022490CF05EFE1E20A36ADA0104D51E48D9
:1023DC001F490CF056FE1F20194CA36ADB0204D5D2
:1023EC0019481C490CF04DFE0220A36A1C0304D5AD
:1023FC00154819490CF045FE2120114CA36A5903CC
:10240C0004D5114815490CF03CFE2220A36A9A030E
:10241C0004D50D4812490CF034FE2320084CA36A55
:10242C00DB0304D508480F490CF02BFE2420A36ACB
:10243C006FEA03436FEA1343A36210BD1D20C3E789
:10244C0000ED00E0664D0108944101087E4D010845
:10245C00914D0108AB4D0108D54D0108F34D010814
:10246C00184E0108324E010870B5294C06460D462F
:10247C00284829490CF005FEA36AD9043CD5254807
:10248C0026490CF0FEFD1720A36A1A0504D5214835
:10249C0023490CF0F6FD18201D4CA36A9B0512D5A0
:1024AC001C4820490CF0EDFDA36BA26A100409D561
:1024BC0001211D4A17480CF0BBFC1EB1A36A23F482
:1024CC000043A3621920124CA36A590504D5114884
:1024DC0016490CF0D6FD1A20A36ADA050ED50D4864
:1024EC0013490CF0CEFD1B20094A936A43F47F4339
:1024FC00936200232B7070BD1620C5E7A36A9B0462
:10250C00F2D504480B490CF0BCFD1C20ECE700BFD5
:10251C0000ED00E0944101085D4E0108734E010886
:10252C00D74C0108844E01089D4E0108B24E01089B
:10253C00CD4E0108374D01082DE9F0418AB0654BAD
:10254C000446D3F80480002600AFC8F3080586F3D0
:10255C001188BFF36F8F02F07F43B3F17F4F07D128
:10256C0002F00C03082B12D15B495C480CF089FD7E
:10257C00002634460023FB71EB1E092B00F28980E8
:10258C00DFE803F00A7F827B8787878787851007C0
:10259C004CBF0C460126EDE7514950480CF071FD3B
:1025AC0000234C4DFB71EB6A9A0705D54D494B48FE
:1025BC000CF067FD002331E0EB6A002B01DA4A498D
:1025CC00F5E7EB6A5B00F5D5484944480CF059FD3A
:1025DC006B69A26943F480736B61BFF34F8FBFF3D8
:1025EC006F8F6B6932F8022C23F480736B61BFF32D
:1025FC004F8FBFF36F8F4DF602739A4207D0AB6AC1
:10260C00DBB26BB30120F91DFFF768FE37E02368DE
:10261C000121374A31480CF00BFC2368FA79DAB9FE
:10262C0007F1080504F1200C2A462068616808347B
:10263C0003C264451546F7D17A6A002E45D0C2F321
:10264C00080121B96FEA52226FEA42227A621846D7
:10265C0007F10801FFF7B2FD2837BD46BDE8F08150
:10266C00AB6A13F47F4F04D00120F91DFFF7FCFE79
:10267C0005E0AB6AB3F5803F9CD3FFF797FE0346AA
:10268C00CCE70020F91DBFE70020F91DEEE7194942
:10269C008DE7194A18F4F87FE8468AB0174B18BF33
:1026AC0013466A461649103DC2E905134FF40073F0
:1026BC001384144BD56142F8103F00234FF4115191
:1026CC000648FFF7BBF9C54674E722F4FF7222F007
:1026DC000102BBE700ED00E0134F01089441010833
:1026EC003E4F0108554F0108764F0108844F0108F1
:1026FC00A34F0108BF4F0108FA4E0108E54E01082F
:10270C00E34F010804000001064B5A6942F0100225
:10271C005A615A6942F480625A615A6922F008027D
:10272C005A61704700ED00E0EFF30880EFF3098188
:10273C0001B57246FFF700FF01BD00BF0A4880F3E8
:10274C000888102080F3118808484FF40061401865
:10275C0080F30988EFF314800221084380F3148876
:10276C00BFF36F8F00F0B0F8E0A60020A09500201A
:10277C00084B9B6883420BD1EFF3058343B1064BA7
:10278C005A6842F080525A605A6A22F400425A62E5
:10279C000AF004BF6428002000ED00E014498A68A8
:1027AC004FF030001044EFF3098C80E8F01F10203C
:1027BC0080F31288BFF36F8F0E4F4FF000664A699B
:1027CC008A603E60106F0C4C2060506F0023536782
:1027DC0080F3118802F1300090E8F01F8CF3098827
:1027EC0002F1000004B50CF054FCBDE80440704745
:1027FC006428002004ED00E0902400201EF0040F5B
:10280C000CBFEFF30880EFF30980816911F8021C0B
:10281C000229FFD001B572460CF028FC01BD00BFA7
:10282C0000B2002807DB01234109034A00F01F0016
:10283C00834042F82130704700E100E000B20028EC
:10284C000CDB01220649430900F01F0082402033B3
:10285C0041F82320BFF34F8FBFF36F8F704700BF3A
:10286C0000E100E0054B420953F82220012300F05F
:10287C001F0003FA00F01040704700BF00E100E0B9
:10288C0000B2002801F10101ACBF00F16040064B21
:10289C004FEA0111C9B2ABBF00F5614000F00F0067
:1028AC0080F800131954704714ED00E0044B054AEE
:1028BC0023F07F039360BFF34F8FBFF36F8F70478D
:1028CC000000000800ED00E008B5FFF7EFFF0B4A31
:1028DC00D2F8883023F47003C2F88830EFF31483F5
:1028EC0023F0040383F31488BFF36F8FFFF73EFCD0
:1028FC00FFF748FC00F046F809F0C8FE00ED00E0D8
:10290C0042F8203C009B0B4942F81C3C019B21F0F7
:10291C00010142F8183C029B42F8081C42F8143C96
:10292C004FF0807342F8043C0023203A0265436761
:10293C00704700BFE913000800B50D4B15469860B1
:10294C00026F0C4B0E461A60036E83F30B882C46F9
:10295C0086F309880020044B98472046002100226A
:10296C000023024C20470000ADF00008E9130008DA
:10297C0064280020902400201022014B1A6170471B
:10298C0000ED00E0002310210348C21801338B2B0B
:10299C0082F80013F9D1704700E100E008B5EFF3BD
:1029AC000583064A103B02EBC30152F83300496819
:1029BC008847BDE80840FFF781BC00BF483C0108D0
:1029CC001FB5094C094A23460121094800F012F9A8
:1029DC0000230393074B0121E41A01A801930294ED
:1029EC0000F012F904B010BD0000272000000020F8
:1029FC00EC4201088006002010B50C7A0B6804F03C
:102A0C001F0223F01F031A43CB68640923F01F0332
:102A1C00054943EA440343F00103C1F89800C1F8A7
:102A2C009C20C1F8A03010BD00ED00E010B50A4BA1
:102A3C00D3F89030C3F30723013B984208D9012106
:102A4C000346064A06480CF0F3F96FF0150010BD6A
:102A5C00FFF7D2FFFBE700BF00ED00E0FA4F0108E3
:102A6C007C4101082DE9F04F8946144606464FF08B
:102A7C000008514D85B0C84527DAD6F804A0BAF144
:102A8C00000F44D0BAF11F0F17D91AF01F0F14D131
:102A9C00D6F800B01BF01F0F0FD158460CF014FBEA
:102AAC0007460AEB0B0001380CF00EFB874210D0E6
:102ABC006FF01507414A3B4601E04346404A01216D
:102ACC0040480CF0B5F96FF01504204605B0BDE890
:102ADC00F08F17F1160FEDD0BC42EBDDC5F89870F6
:102AEC00D5F89C10C5F89870D5F8A03021F01F01CE
:102AFC0043F01F0BD6E900321A44994202F1FF3A17
:102B0C001DD1D34507D13146F8B20CF0E6FA08F1E5
:102B1C0001080C36AFE73146C5F89870D5F89C30F3
:102B2C0022F01F0203F01F031343C5F89C30E0B2E0
:102B3C000CF0D3FA10F1160FC5D0441CE7E7C5F81A
:102B4C009870D5F8A020013B23F01F0302F01F0260
:102B5C001343D3453146E0B2C5F8A030E8D00CF0B1
:102B6C00BCFA10F1160FAED0C5F89870D5F89C20B1
:102B7C009DF808300BF1FF3B62F304038DF808302D
:102B8C00D5F8A0309DF808205B0863F347128DF848
:102B9C000820D6E900321344009323F01F035B4452
:102BAC00A3EB0A03013023F01F036946C0B2039361
:102BBC00FFF73CFFBEE700BF00ED00E0435001080B
:102BCC00205001087C4101080522044BC3F89420D5
:102BDC00BFF34F8FBFF36F8F704700BF00ED00E066
:102BEC00BFF35F8F0022024BC3F89420704700BFE5
:102BFC0000ED00E010B5034C2278FFF733FF207096
:102C0C0010BD00BF9D2800202DE9F74F294D8A46A5
:102C1C0006464FF00008AB46274FD0451BDAD6F8D6
:102C2C000490B9F1000F3FD03168084601910CF0C7
:102C3C004BFA0199044609EB010001380CF044FAF7
:102C4C0084424FF014021D4B08D002FB08F36FF0C6
:102C5C0015024BF8032003B0BDE8F08F14F1160FEA
:102C6C002C60F8D01978A142F5DD02FB08B0C7F84A
:102C7C009840C7F89840D7F89C4000F10801007BB9
:102C8C0064F304000871D7F8A0000C79400860F3D5
:102C9C0047140C71D7F89C1021F01F016960D7F80C
:102CAC00A01021F01F01296108F1010814350C3620
:102CBC00B3E700BF9424002000ED00E09D28002025
:102CCC00F0B54B494B4CD1F890302568C3F3072332
:102CDC009D4287B000F288800020FFF781FF464BB1
:102CEC00C1F8C030854216D1444C01A82570FFF7BD
:102CFC0063F900250646424FAE4213D100202378DB
:102D0C003B49D1F89020C2F30722934266DBFFF7D0
:102D1C005BFF002042E0616801EB0011FFF76CFEE5
:102D2C000130DFE70199280101EB0513DA683A401D
:102D3C00B2F5800F41D007D8B2F5801F14D0B2F590
:102D4C00001F2DD00135D7E7B2F1006FFAD15A68C8
:102D5C009B680958013B22F01F0003444FF0030C01
:102D6C00012023F01F030AE05A689B680958013BB5
:102D7C0022F01F0003440120844623F01F0340EA85
:102D8C004C10CDE902218DF8100002A92078059392
:102D9C00FFF74CFE00281DDA6FF0150007B0F0BDF0
:102DAC005A689B680958013B22F01F0003444FF0FE
:102DBC00020C012023F01F03E1E75A689B680958B5
:102DCC00013B22F01F0003444FF0000C062023F0BF
:102DDC001F03D4E7237801332370B3E7C1F898308D
:102DEC00C1F8A00001338CE74FF0FF30D6E700BFED
:102DFC0000ED00E0F8420108AAFF44009D280020E5
:102E0C000000F0FFF0B587B007460E4614460021CF
:102E1C00102268461D4610F0E2FC02238DF80230A9
:102E2C00054B2A4621466846CDE9047601930AF003
:102E3C004DFF07B0F0BD00BF19F1000808B5024BFB
:102E4C001B689847002008BDA8240020034B044AA7
:102E5C001860937843F0020393707047A824002005
:102E6C00D000002008B54FF40052034903480BF082
:102E7C00ECFB002008BD00BFA06B0020AC240020A0
:102E8C0070B541690446857A0B4E59B1437ADB071C
:102E9C0006D4242303FB0563DB691B689B689847F6
:102EAC000023636105EBC505214606EB8500BDE8F3
:102EBC00704010F050BA00BF840500202422024B51
:102ECC0002FB0030704700BF840500202421827A69
:102EDC00054B01FB02331A6A1B7D801A1B3323F04E
:102EEC000303B0FBF3F070478405002038B52424AD
:102EFC00827A064B04FB0233DB69D3E901240C60B4
:102F0C001568FFF7E3FF04FB005038BD8405002073
:102F1C002DE9F04385B00546684690461C46039162
:102F2C0010F0DBFBDDE90067EFF31189102383F36D
:102F3C001288BFF36F8F6B8A002B41D02A8A9A427A
:102F4C0025D900220023284609F0FCFD0446F0B1E7
:102F5C0089F31188BFF36F8F039B002B41D032464E
:102F6C003B46684610F0DEFB2421A27A254B204616
:102F7C0001FB0233DB6903A91B681D68DDE9002333
:102F8C00A847606170BB2046FFF77AFF24E0698A8E
:102F9C004B1E6B8289F31188BFF36F8F2B7D2A8AAE
:102FAC002C6A1B3323F00303521A02FB0344154B08
:102FBC00154AEB1A9B105343A3722B7DE372CBE79C
:102FCC0089F31188BFF36F8F23464246284609F0D8
:102FDC00B9FD04460028BFD10024204605B0BDE849
:102FEC00F0836361012300252381039B29466382BF
:102FFC00E27A656004F1180010F0F1FB6369258238
:10300C00E360EAE784050020398EE33870B52425A7
:10301C000C4C00B970BD037A4668002BFAD0013B0A
:10302C00DBB20372002BF5D1C3604360837A05FBDE
:10303C0003439B6913B198473046EAE7FFF720FF3B
:10304C00FAE700BF84050020084B0246596811B10D
:10305C001968884207D0D86830B1996804488A4208
:10306C0018BF002070471846704700BFB8240020D6
:10307C00C024002002460B46014809F09BBC00BF4F
:10308C0010050020014809F00DBD00BF10050020FF
:10309C0038B504460D464FF0FF304FF0FF31FFF7C7
:1030AC00E9FF2046FFF7D0FF08B143687BB90B4B13
:1030BC005A6812B1DA686AB9012243F83240002426
:1030CC0003EBC2035D60FFF7DDFF204638BD6FF0F8
:1030DC007704F8E76FF01B04F5E700BFB824002075
:1030EC001328DABF024B18566FF00400704700BF6C
:1030FC00C650010800200149FFF7CABF2C43010844
:10310C00012230B5C1680446ADF5057D0069114456
:10311C0005F0EEFC0D2819D194F820309A0722D432
:10312C00DB071AD46D46124B0FCB85E80F00E06815
:10313C004FF40073294604AA013005F001FD60B973
:10314C000122E1682069114405F0D2FC28B994F8F9
:10315C00203043F0080384F820300DF5057DBDE8E0
:10316C003040FFF7BDBF6FF01D000DF5057D30BD84
:10317C004442010838B5044600680EF064FD05466B
:10318C00216804480FF0E7FF2846BDE83840FFF7F8
:10319C00A7BF00BFA804002073B5002206460D4649
:1031AC000023104801A909F00BFB0446B0B9019BA0
:1031BC0001462C22184610F012FB691C30600EF0F0
:1031CC0011FD054620B1019906480FF0C4FF34608B
:1031DC00284602B0BDE87040FFF782BF6FF00B00CD
:1031EC0002B070BDA804002038B5044600680EF08B
:1031FC0065FC2168054605480FF0ADFF00232360F0
:10320C002846BDE83840FFF76BBF00BFC404002060
:10321C00F7B5002306460D4617461248002201A9B1
:10322C0009F0CEFA0446C0B9019B01462822184683
:10323C0010F0D5FA691C306007F013020EF0D6F9C5
:10324C00054620B1019907480FF085FF34602846E8
:10325C0003B0BDE8F040FFF743BF6FF00B0003B0C5
:10326C00F0BD00BFC404002037B50022C16805467C
:10327C00013110468DF8072005F03AFC044658B190
:10328C0001210346104A11480BF0D2FD204603B031
:10329C00BDE83040FFF724BF2B69052158780DF1AC
:1032AC00070205F0F5FF044648B101210346084A20
:1032BC0006480BF0BDFD042C03D8064B185703B081
:1032CC0030BD6FF00400FAE78F500108544101083B
:1032DC00A3500108C150010838B504460AF064F83F
:1032EC0020460CF08CF8A069C8B194F87030DB075C
:1032FC000DD50221144A15480CF07FF86FF07705B4
:10330C00201D0CF083F80AF063F8284638BD0FF046
:10331C008FFE38B901210E4A0C480CF06EF86FF094
:10332C001205EDE7204601F0ADF805460028E7D17F
:10333C0028220146A01810F052FA94F8703043F08D
:10334C00010384F87030DBE7DA500108044201080D
:10335C000451010838B505460AF026F828460CF049
:10336C004EF895F87030DA070DD40221184A194836
:10337C000CF043F84FF0FF34281D0CF047F80AF01E
:10338C0027F8204638BD9B0707D50221124A114861
:10339C000CF033F86FF07704EEE7A8690CF0F3FF4C
:1033AC00044628B101210D4A0A480CF026F8E3E73F
:1033BC0028460CF07AF9044618B1A8690DF00CF8FF
:1033CC00DAE795F8703043F0020385F87030D3E7F4
:1033DC0027510108044201084D510108735101089D
:1033EC002DE9F04190F82830044603F01F03012B1F
:1033FC000F4600F128061BD0022B05D043BB90F8DA
:10340C0029100CF0EBF903E0818DC9B201F0BAFB85
:10341C000546E8B130460CF0F7F802466868836858
:10342C00A2B99B684BB13A463146BDE8F04118470A
:10343C00818DC9B20CF0B9F9EAE76FF0850310F091
:10344C007FFA0F4A13500020BDE8F081DB68E9E7F2
:10345C00204694F829100BF0ECFF02460028ECD023
:10346C0030460CF0D1F840B91369002BE5D03A4640
:10347C003146204698470346E1E7D368F5E700BF9D
:10348C000C0000002DE9F04385B007468846144631
:10349C001E460BF0BDFF05468EB138460BF0BDFF46
:1034AC00012809D010F04CFA6FF08502334B1A50FA
:1034BC00002005B0BDE8F083B5FA85F56D0901343F
:1034CC0029463846E2B20CF00AF9814630B901219E
:1034DC0023462B4A2B480BF0ABFCE3E744684EB178
:1034EC002068616801AB03C3227A01AC1A70072310
:1034FC008DF8053008F10C0630460BF07CFE227876
:10350C00824203D930460BF076FE02462146304605
:10351C000BF04FFED9F80C90B9F1000F09D1B8F8A7
:10352C001010FB8D9942C3D93046C91A0BF05CFEC2
:10353C00BEE7D9F8040083681B6B13B9D9F8009067
:10354C00EAE7294698470028F8D0041F54F8043FAE
:10355C00002BF3D01B78002BF0D030460BF04BFE39
:10356C0023681A78824203D930460BF044FE82B2AB
:10357C00304621680BF01DFEE8E700BF0C00000090
:10358C00A2510108E44101082DE9F04F95B00B7EE2
:10359C00044633F080050E46914602AF00F1280A2E
:1035AC000BD00121AB4AAC480CF044F86FF0040589
:1035BC0028464C37BD46BDE8F08F4A7EB9F1000F66
:1035CC001CD019F10C0F19D0D10717D419F1710FA8
:1035DC0008D10321A14AA0480BF02AFC3046FFF782
:1035EC0015FDE5E701219E4A9B48CDF800900BF0B4
:1035FC0029FC3046FFF70AFD4D46D9E7E8468CB06A
:10360C0002F0010CC2F34000C2F38001B6F810E0E6
:10361C0002AAC2E9073E0823DFF848B2C2E909C092
:10362C00C2E905B6D16242F8103F002344F2C00152
:10363C008948FEF703FA737EC54613F0010B00F0C0
:10364C00F784327E002A40F0F384338A072B0DD99D
:10365C00F2681368A3625368CAF804307168E28D8B
:10366C00B9B9814A01217C480BF0E4FF01217F4A62
:10367C0079480BF0DFFF3046FFF7C8FC50460BF0E3
:10368C00C3FF0346A069002B00F02985802100F0C0
:10369C002FBD50460BF0B8FFD0B94B7E32B113F0B2
:1036AC0002031AD188B002AA714805E013F0040392
:1036BC0013D188B002AA6F48C2E90501032142F870
:1036CC00101F4FF4C2516448FEF7B8F9C546CDE758
:1036DC000AB9694AC6E74B7EE1E7314600200BF098
:1036EC0050FD064628B9604A01215B480BF0A2FF49
:1036FC00C4E710F025F9002394F828205F4D12F050
:10370C00600F4351C2F3411307D0032B40F06B827F
:10371C0010F016F96FF085033DE050460BF074FF86
:10372C0094F82930002840F0ED81013B0A2BEFD8AA
:10373C0001A151F823F000BF8B3900081D37000898
:10374C006D3A00081D370008713700081D37000856
:10375C001D3700081D370008AD3800081D3700085C
:10376C0033390008A069618D03697F29D3F8803053
:10377C00CED8A28D002ACBD1E28D002AC8D194F8E4
:10378C002820D206C4D194F83420022A39D110F062
:10379C00D7F84FF0FF332B504FF000080321384A75
:1037AC002D480BF047FFEB4688B002AA354B53610E
:1037BC00354B93614FF400739383344B42F8103FB5
:1037CC00254853463249FEF739F910F0B9F82B5811
:1037DC00DD46863304D103212E4A1F480BF02AFF05
:1037EC0010F0AEF82B58013306D194F83430032185
:1037FC00294A19480BF01CFBB8F1000F00F0E080CF
:10380C0011E01B0714D5C9B20BF036FF804690B1FE
:10381C00638D0121214A10480BF00AFB10F090F83F
:10382C002B58002BBAD13046FFF7F0FB4546BFE6CC
:10383C00012384F83D3094F83430012B07D1638D8B
:10384C002BB984F8343010F07BF82B58DCE00123D2
:10385C00F7E700BFC8510108E4410108E95101082C
:10386C000E5201083D52010871520108D452010850
:10387C0093520108A2520108B35201080C00000037
:10388C009B530108FF5A0108AB53010803000001C8
:10389C00C01C8000B2530108C0530108EB52010850
:1038AC0020460BF0B5FD638D8046BF4A0321BF480F
:1038BC000BF0BEFA628DFF2A3FF62AAFE38D002B88
:1038CC007FF426AF94F82830D8067FF421AF94F813
:1038DC003430002B3FF45BAF3AB141462046D2B2B4
:1038EC000BF025FF00283FF452AF618D94F83C306B
:1038FC008B42A8D02046C9B200F0E4FF638D80460D
:10390C0030B101210090AA4AA8480BF09BFA85E738
:10391C001A1E18BF4FF0020B0521204684F834B054
:10392C000CF02EF88FE794F8283003F01F03012BCE
:10393C007FF4EEAEE38D002B7FF4EAAE628DFF2AAE
:10394C003FF6E6AEA18DFF293FF6E2AE94F8343097
:10395C00022B7FF41CAF2046D2B2C9B201F09EFA02
:10396C0010F1020F804640F0928190480321914A59
:10397C000BF060FE0FF0E4FF45F800800CE7E18DE2
:10398C00A38D00297FF4C4AE94F8341000293FF4C1
:10399C00FEAE01290FD1002B7FF4F9AE12F01F02FD
:1039AC000CD1638D012B0BD194F870306FF3C303E2
:1039BC0084F8703004E012F01F0206D0022A08D0FE
:1039CC000FF0BEFF2B5813B355E6002B7FF4DFAE80
:1039DC00E7E7628D002AF3D15FFA83F8414620466F
:1039EC00FA6001F01BFB03460FF0AAFF2B500133CA
:1039FC008346FA6802D14FF0FF38CFE641462046A5
:103A0C000BF008FE55F80B30002B7FF4C5AE0123EC
:103A1C00504623630BF0F8FD002840F0F582E38D4F
:103A2C00002B00F0F182DFF890B1DFF880816D4659
:103A3C0088B002AA0323C2E905B642F8103F00235E
:103A4C004FF4C6514046FDF7F9FF3146AD46002014
:103A5C000BF097FB0646002840F0D282574A43E60B
:103A6C00E38DA18D002B7FF453AE638D5FFA81FB48
:103A7C00022B13D194F8283003F01F035BEA0303E5
:103A8C007FF446AE0122A069090A0BF0D5FD00288F
:103A9C007FF43EAE012384F83D30D4E694F8340034
:103AAC0000283FF474AE01280CD100297FF46FAECE
:103ABC0012F01F0209D1012B82D194F8703043F01F
:103ACC00080375E712F01F0218D0022A7FF478AFB2
:103ADC00002B7FF475AF5946204601F07DFA034662
:103AEC000FF02EFF2B500133804684D00122594613
:103AFC0020460BF08FFD55F8083085E700297FF440
:103B0C0046AED8E70A2B3FF603AE01A151F823F0DD
:103B1C00493B00081D3700081D3700081D370008F9
:103B2C001D3700081D370008E33B00081D3700084F
:103B3C00A53F00081D370008D33F0008E38DA18D79
:103B4C00022B7FF4E5AD94F83430002B3FF41FAE1C
:103B5C00012B10D100297FF41AAE12F01F020DD1E7
:103B6C0094F870304FEA930808F00208C3F300137E
:103B7C0048EA030806E012F01F0210D0022A1FD0F8
:103B8C004FF0000806F10C0B58460BF034FBE38D9C
:103B9C0098421BD20FF0D4FE6FF00B03FBE500290B
:103BAC007FF4F5ADDCE700BF0D530108E4410108DB
:103BBC003053010853530108E15301087A540108AA
:103BCC002046C9B20BF0D1FE8046DBE74146584691
:103BDC000BF000FB37E694F82810628DC9064FEA0B
:103BEC001223D2B204D031462046FFF7F9FB4DE048
:103BFC00013B0E2B3FF68CAD01A151F823F000BF19
:103C0C00493C00088F3C0008B53C00081D370008F3
:103C1C001D3700080D3E0008B13C00081D37000898
:103C2C001D3700081D3700081D3700081D37000818
:103C3C001D3700081D370008AB3E000806F10C08C4
:103C4C004046B4F82EB00BF0D6FA83450AD2B4F83D
:103C5C002EB020460BF0DCFB48B101287FF458ADA8
:103C6C00A16F05E040460BF0C6FA8346F1E7616FA1
:103C7C00002900F0E1800A785A4528BF5A46404690
:103C8C0035E0002331462046FFF7FCFB80460FF061
:103C9C0057FE2B58002B7FF481ADB8F1000F3FF489
:103CAC00B6AEC0E50123EDE7032120460BF000FC86
:103CBC00F86000283FF42CAD0BF0A1FCE28DFB6802
:103CCC00E0B9998A06F10C0B39851B6958461B889B
:103CDC0090467B850BF08FFA80450BD2E08D97F8E0
:103CEC00282007F12801824228BF024658460BF0D3
:103CFC0060FAA8E558460BF07EFAF0E74FF00008A2
:103D0C0093465A7D99687A75C34A87F814800A409D
:103D1C00C2498A4266D1102107F1180004F098F8C4
:103D2C00002845DB102828BF1020DFF8F4C207F16B
:103D3C00180307F12802404502F1020241D8800025
:103D4C000230387507F12803FB6006F10C031846A6
:103D5C00BB600BF050FA97F81480D84528BFD846B2
:103D6C00404504D206F10C000BF045FA8046B8F140
:103D7C00020FC34628BF4FF0020B07F114015A463D
:103D8C0006F10C000BF015FAA8EB0B08D7F80CB0E9
:103D9C004FEA58030BEB58025A4527D118F0010F84
:103DAC003FF451ADFA68B868D15C0BF00BFA4AE5F8
:103DBC0058307FF4ADAC01219A4A9B480BF03AFC89
:103DCC00A6E413F8011B08F101084FEA111E01F0DB
:103DDC000F011CF80EE01CF8011002F802EC02F8BE
:103DEC00011CA8E71A7D1B693A75ADE71BF8011B8E
:103DFC00B868C7E900230BF0EDF9D7E90023CBE74E
:103E0C0020460BF005FBD4E91D83002808BF98461B
:103E1C000023C7F82A30C7F82E300A2387F8283039
:103E2C000623204687F829300BF0F7FA01287FF497
:103E3C006FACB8F1000F05D10FF082FD6FF01508D3
:103E4C002B58EEE4B8F802307B8598F8043087F8EC
:103E5C002C3098F8053087F82D3098F8063087F814
:103E6C002E3098F8073087F82F3098F8113006F17B
:103E7C000C0887F830304046B4F82EB00BF0BBF984
:103E8C00834508D2E08D97F8282007F1280182425B
:103E9C0028BF0246F3E640460BF0ADF9F3E72046A7
:103EAC000BF0B6FA20B101287FF432ACA36F00E01E
:103EBC00636F002BC0D05B88B3F5007F7FF628AC16
:103ECC005A4B04F15002BB62002387F82C3004F1EA
:103EDC005003FB60236D9A425BD106F10C0B5846E4
:103EEC000BF089F9B7F82A80E38D984528BF9846DE
:103EFC00404503D258460BF07EF9804697F82820AF
:103F0C005846424528BF424607F128010BF051F9AB
:103F1C00B8F1050F94BFA8EB0808A8F10508B8F193
:103F2C00000F3FF490AC236DFA6893423FF48BACD6
:103F3C00002B3FF488AC5A7D0F2A14D11A7D1969D5
:103F4C00424528BF42465846FB600BF032F9FB68ED
:103F5C001A7D424594BFA8EB0208A8EB0808B8F1FB
:103F6C00000F3FF470AC626D9A423FF46CAC1B686E
:103F7C00DEE75A7D0F2A08D11A7D798D0A447A859D
:103F8C0097F82C20013287F82C20626D9A42A4D02D
:103F9C001B68002BEDD1A0E794F8343094F83CB0BA
:103FAC00002B3FF4F4ABE38D012B7FF4B1AB06F1A6
:103FBC000C0840460BF01FF9E38D9842FFF4EAAD74
:103FCC0059464046F1E694F8283003F01F03012BC4
:103FDC007FF4DDAB20460BF096FB00283FF4D7AB0B
:103FEC00A38D4268FF2B3FF693AB12799A42FFF4F4
:103FFC008FAB0F2B3FF68CAB234493F83EB0D2E73C
:10400C00737E5A077FF513AD3146204600F09CFFB6
:10401C000546FFF7CDBA00BF00FF02000003020007
:10402C009754010879530108E4410108050F050074
:10403C005B077FF523AB337E5BB9236B3048012BD9
:10404C000BBF032102212F4A2F4A0BF0F3FAFFF783
:10405C00C5BA802B7FF412AB3046FEF7D7FF266B28
:10406C00012E35D10321294A25480BF0E3FA94F8A7
:10407C003D30002B3FF49CAA94F82930052B0CD131
:10408C00618DA069C9B20BF0F7FA054628B1638DB2
:10409C001F4A31461A480AF0CBFE94F82930032BFC
:1040AC0011D1638D022B0ED1A18D00220E0A314647
:1040BC00A0690BF0C1FA054628B101213346154A17
:1040CC000F480AF0B5FE002384F83D30FFF770BAB4
:1040DC000221114A0A480BF0ADFAFFF769BAE38DD9
:1040EC00002B3FF4D3AA19F10C0118BF0121C9010F
:1040FC000CF0A1F8002305462363FFF759BA00BF63
:10410C00E4410108EA530108FF5301082054010857
:10411C00EB52010838540108565401080B7810B4BE
:10412C00062B14D10369D3F89C20EFF311841023D0
:10413C0083F31288BFF36F8F00204B681860506AAE
:10414C0058B9C2E9083384F31188BFF36F8F00228A
:10415C000023034810BC0FF05CB803605362F2E715
:10416C004C05002030B589B0002200230024CDE995
:10417C0006236FF007034FF48062CDE90334CDE9D9
:10418C000144154B15490094154808F051FF154989
:10419C0013480FF06BF9144B14498B4207D30020D2
:1041AC00134B14498B420CD3002009B030BD03F1E2
:1041BC001402D2E8EF0FC2E8E54F002DF9D1183305
:1041CC00EBE703F11402D2E8EF4FC2E8E50F002D44
:1041DC00F9D11833E6E700BF59420008A08B002044
:1041EC00401B0020DB480108480600206006002028
:1041FC00600600207806002038B50D460BF083FAD7
:10420C0030B90121BDE838400E4A0F480AF007BE0C
:10421C00C46804B938BD2B78032B07D0052B0CD000
:10422C00022B08D1606883689B6902E06068836830
:10423C005B6903B198472468EBE760688368DB69C6
:10424C00F7E700BFB1540108F44101082DE9F0472C
:10425C00102684B0DFF80C8200AF4FF0FF334FF024
:10426C00FF324046391D08F043FBFB681B69D3F84D
:10427C009C40236A73B1EFF3118386F31288BFF36A
:10428C006F8FD4F820A0BAF1000F1BD183F31188E3
:10429C00BFF36F8F3B79062BDFD0072BDDD801A244
:1042AC0052F823F0474300083B4300086F430008D3
:1042BC004D430008A54300089143000867420008DD
:1042CC0061440008616ADAF800208A45226208BF5E
:1042DC00626283F31188BFF36F8F9AF818305146DE
:1042EC005D062046DAF81E201ED1FFF74DF9054673
:1042FC000028BED0E9468AB06A469AF81830C2E95E
:10430C00073A05235849C2E9051042F8103F00232B
:10431C004FF421515548FDF791FB2A46CD46072114
:10432C0020460BF02DFBA4E70BF04FFADFE7002241
:10433C00012120460BF024FB8FE700221146F8E701
:10434C0094F8703043F0040384F8703094F83430EF
:10435C00022B03D12046391DFFF74EFF002203210B
:10436C00E7E794F870306FF3820384F8703094F8B8
:10437C003430022B03D12046391DFFF73DFF0022BC
:10438C000221D6E794F83430022B7FF466AF204636
:10439C00391DFFF731FF60E794F87030D4F81890AE
:1043AC006FF3820384F87030D9F808A0D9F8103074
:1043BC00A033D3E8AF3F9A071BD54846DAF83C3018
:1043CC009847DAF824300021484698470546DAF831
:1043DC004030484698477DB1254A012123480AF0D0
:1043EC001EFD0022042120460BF0CAFA2A460721A2
:1043FC009FE74FF0FF35EFE72946204600F062FAC1
:10440C00054608B11B4AE8E7802120460BF0AAFAC2
:10441C0020B10121184A15480AF001FDA0690BF0E2
:10442C009CFF03460321154A10480AF001FDA069C0
:10443C000BF093FF0022831E5842584194F87030C1
:10444C00042123F0680343EA401384F8342084F8F1
:10445C0070306EE701210A4A04480AF0E0FC06219C
:10446C00BA6866E74C050020E0540108F4410108E5
:10447C000A55010838550108645501088155010891
:10448C009855010838B5024605460C4980690BF071
:10449C00C3FF044630B10121094A0A480AF0BFFCA7
:1044AC00204638BD85F83C00284600F0A3F90446A8
:1044BC000028F5D0A8690BF0DEFFF1E729410008D0
:1044CC00A8550108F44101082DE9F8434FF0010803
:1044DC0005460C4646462068002840D068F07F020E
:1044EC00D2B211465FFA88F70BF0E5F8E0B1D5F8D7
:1044FC000090114648460BF0DEF848B913461948AF
:10450C000121194A0AF094FC6FF01500BDE8F883FC
:10451C0022F08002103206FA02F229EA02032B6022
:10452C00236823EA02032360394620680BF0C3F8A2
:10453C0080B12A68394610460BF0BDF808B94346DD
:10454C00DDE706FA08F122EA01022A60236823EA71
:10455C000103236008F10108B8F1100FBBD1002052
:10456C00D4E700BF1C420108CF5501082DE9F04FDC
:10457C0091B0002602AF5368C7E90321D468786074
:10458C007B623E63BE61B4B9BB697A6A09339BB284
:10459C0093701B0AD37016715388032100938D4AB4
:1045AC0033468D480AF04EFCFB68DC68002C40F06A
:1045BC000381A246D2E0002560687D6383681B6B93
:1045CC00002B00F0D38039699847002800F0CE808A
:1045DC00C4E903553546031FFB61FA6952F8043FE1
:1045EC00FA610BB11A78D2B9B54240F2BC80E268DC
:1045FC007B6B1A43E2602369032100927648774A69
:10460C000AF020FC606883689B6A002B00F0B08085
:10461C0098478246002800F0AE80714A9AE05A789A
:10462C000B2A08BF9D70FB69D3F8008098F8013005
:10463C00042B1CD1E3687A6B1343E36098F80330C6
:10464C00002B77D1012288F802502369AA4013432A
:10465C0001352361EDB2002398F803207B6398F8B1
:10466C000230032100925C485E4A0AF0EBFBFB69C6
:10467C00D3F8008098F80130052BAED17B686FF031
:10468C00120A9B69BB6001233B6298F8051098F8ED
:10469C00042097F820B042EA0122FA8598F902200A
:1046AC003B6B002AB8BF4BF0800B594618467B6118
:1046BC000BF001F8002847D1D7F8349059464846FA
:1046CC000AF0F9FF00283FD198F8063098F803203B
:1046DC0000935946B86807F12E030BF023FD824670
:1046EC0090BB01231BF0800F1EBF2BF080021032F9
:1046FC009340F88D7A6908BF03FA0BF31A4388F8D4
:10470C0002B049EA0309A8F80400E8468AB0C7E9F0
:10471C000C2902AA344BC2E90709C2E9053B05235F
:10472C0042F8103F00234FF423512B48FDF786F934
:10473C00C54652E76B1E88F8023007F1340107F1C9
:10474C003000FFF7C1FE86E73B6A0133102B3B625A
:10475C009BD1264A012120480AF061FB50463C3788
:10476C00BD46BDE8F08F6FF0150AF2E7354649E714
:10477C006FF0850A51E7D4F80480396940460AF095
:10478C00F4FF6E4688B002AA1949D061C2E9051837
:10479C00042142F8101F4FF4035153460E48FDF705
:1047AC004DF9B546606839690AF0DFFFBB692E46E2
:1047BC0003442468BB61E6E6E36804F10C01A360E2
:1047CC0007F13000FFF780FE82460028C6D124682E
:1047DC00ECE600BFCB5601081C4201083356010819
:1047EC007D560108EC55010806560108595601087A
:1047FC00A15601082DE9F041836904461B69426FFB
:10480C0093F88030C3F34113022B12D0032B12D038
:10481C00012B0CBF10230823D371266E1E4FDFF81B
:10482C007C8056B9A66D1E4FDFF87080FEB93546F8
:10483C0011E02023F0E74023EEE732460121204629
:10484C00FFF794FE054648B173685B79154A012160
:10485C0012480AF0EDFA2846BDE8F081A36F5B7CA4
:10486C0003213A4640460AF0E3FA3668D9E7324665
:10487C0000212046FFF77AFE054618B173685B7974
:10488C00094AE4E7636F5B7C03213A4640460AF031
:10489C00CFFA3668CAE700BF105701081C4201085E
:1048AC004C570108ED5601082957010808B503219A
:1048BC00024A03480AF008FF002008BD6F570108A0
:1048CC00DC4101082DE9F04105460E460AF0A0FD39
:1048DC0095F83C3080463BB328460AF014FF074657
:1048EC00F8B1014628460AF090FF10220446002138
:1048FC0005F13E000EF073FF002385F83C30FF6895
:10490C0047B98CB10121194A19480AF0DDFE20463D
:10491C00BDE8F081786883685B6A03B198473F68AB
:10492C00EEE76FF03C04EDE71EB985F83C6000241F
:10493C00EDE73246414628460AF0D1FE074690B1D3
:10494C00024628460AF08BFF04460028DFD185F882
:10495C003C60FC68002CEAD0606883681B6A03B179
:10496C0098472468F6E76FF03C04D0E795570108A8
:10497C00DC4101082DE9F04105468846144657688C
:10498C000AF0A4FE95F87030D8070CD50121514AD5
:10499C0051480AF099FE6FF00F08281D0AF09DFE91
:1049AC004046BDE8F081B8F1010F16D128460AF057
:1049BC0034FD38B9494A012147480AF085FE6FF0A9
:1049CC008508EAE7FB7999061AD5AB691B69D3F818
:1049DC0080309A070CD4424AEDE7FB799B06F4D45D
:1049EC00B8F1000F0AD12B6E4BBB05F158060BE04A
:1049FC00B8F1000FF7D0B8F1010F01D0394ADAE75E
:104A0C00AB6D83B905F1600600223368EBB96268BF
:104A1C00B8F1000F41D16B6F5B7C0133DBB253718A
:104A2C006A6F537423E0A34207D12F4A01212A480D
:104A3C000AF04AFE6FF01508AFE71B68E1E7A342E6
:104A4C0001D12A4AF2E71B68CEE79C4222D12368A7
:104A5C00D2B972683360944200D173600023236032
:104A6C0063685B790221224A1B480AF0E1F9A168CC
:104A7C0021B328460AF036FD8046D8B101211D4AE3
:104A8C0015480AF021FE88E7136073689C4208BF42
:104A9C007260E3E71A461B68B8E7B8F1010F02D061
:104AAC0001235371E3E7AB6F5B7C0133DBB25371D2
:104ABC00AA6FB6E7A0680AF0A2FDB87100232360C4
:104ACC00736823B9C6E900444FF0000865E71C6021
:104ADC007460F9E7F2570108DC4101081458010829
:104AEC00B357010832580108525801086F58010891
:104AFC008C580108A9580108F8B5054600AF21B338
:104B0C0001290BD1184C194E2AE063682846196804
:104B1C00FBF73EFEB0B11834B442F6D36C4688B005
:104B2C006A46134BC2E905354FF400739383114B5E
:104B3C0042F8103F00234FF4E2510F48FCF77EFF80
:104B4C00A54600242046BD46F8BD0C4C0C4EE3E7B0
:104B5C00636828461968FBF71BFE0028F2D018344E
:104B6C00B442F5D3DAE700BF6006002078060020D7
:104B7C00E058010803000001EC4101084806002040
:104B8C006006002070B5012501F07F0311F0800F45
:104B9C0018BF10339D4090F834300446022B06D0D9
:104BAC0001210C4A0C480AF03AF9002070BD90F82B
:104BBC003C600AF02DFC3246014620460AF08FFD7F
:104BCC000028F2D0C0680028EFD083681D42EDD1D8
:104BDC000068F8E7FE580108EC4101082DE9F8439C
:104BEC0005460846114616469846FFF785FF0446CB
:104BFC00002843D028460AF0B1FD95F87030DA074A
:104C0C0002D5204A012109E0D4F8049004F11407DC
:104C1C00D7E8AF3FDB070CD502211B4A1B480AF033
:104C2C00FEF86FF00F04281D07F03CFF2046BDE88E
:104C3C00F883D9F804301BB1AB4201D0144AE1E738
:104C4C004246314628460AF04AFDA0B100232360B3
:104C5C0003696BB9C0E90344D7E8EF3F43F00103A4
:104C6C00C7E8E23F002AF7D10024C9F80450DAE77C
:104C7C001C600461F0E76FF03C04D4E76FF01204A1
:104C8C00D4E700BFF257010823590108EC41010891
:104C9C00455901082DE9F0470129814616469846E9
:104CAC0000AF33D12C4DDFF8B4A028E0B8F1000FE1
:104CBC0004D0414628460AF041FDF8B969683346EC
:104CCC00012248460968FFF789FF0446B0B16B68BA
:104CDC006D468AB01B686A462149C2E905134FF438
:104CEC00007313841F4BD66142F8103F00234FF41E
:104CFC0011511D48FCF7A2FEAD4603E01835554591
:104D0C00D4D300242046BD46BDE8F087F9B16FF03E
:104D1C008504F7E718355545F3D2B8F1000F05D0E7
:104D2C00414628460AF00AFD0028F3D1696833464B
:104D3C00002248460968FFF751FF04460028E9D0D5
:104D4C006B686D468AB06A461B680849C5E7084D12
:104D5C00DFF820A0DFE700BF600600207806002007
:104D6C007A59010804000001EC410108A759010817
:104D7C0048060020600600202DE9F04F85B000AFFA
:104D8C009A4697F838304C680E467B6081469046C0
:104D9C000AF03EFBA36801461B6B33B96FF0150498
:104DAC0020461437BD46BDE8F08F204698470028B2
:104DBC00F4D0002206F10C03A0F1040BBB605BF8ED
:104DCC00045F0DB1297819B9B2B96FF03C04E7E76B
:104DDC006978042912D17AB9A9785145EFD1E978CB
:104DEC007B689942EBD12B790BB10122E7E70321C8
:104DFC00264A27480AF013F80024D1E70529DED10A
:104E0C00002ADCD0AB78B8F1010FFB6018D0B8F1F8
:104E1C00020F34D06C468AB06A46A978F3685362A4
:104E2C0006231C48C2E90718C2E9050A42F8103FDC
:104E3C0000234FF443511648FCF700FEA546D4E777
:104E4C002946BA68D9F818000AF03FFD0446002834
:104E5C00E0D06D468AB06A46F3680F495062C2E9E9
:104E6C000518F968C2E90713062342F8103F00231E
:104E7C004FF441510648FCF7E1FDAD4690E7D9F8F7
:104E8C001800D7E902210AF03CFDDFE7DF590108E1
:104E9C00144201082D5A0108FC5901082DE9F04F64
:104EAC0083B002AF81460D4616460AF07EFC804662
:104EBC0030B96FF0010420460437BD46BDE8F08FD1
:104ECC000F2DF6D8EB4609EB050A8AB09AF83E404E
:104EDC0002AA1B4BC2E90746C2E90535052342F875
:104EEC00103F00234FF423511648FCF7A7FDDD4675
:104EFC002B460022414648460096FFF73DFF00280E
:104F0C00D7D100942B46022241464846FFF734FF86
:104F1C0004460028CFD12B46012241464846009634
:104F2C00FFF72AFF04460028C5D1D8F8040083688F
:104F3C005B6813B13246294698478AF83E60BAE757
:104F4C005D5A0108144201082DE9F0410B7E05461B
:104F5C005E060C4638D119062DD50AF065FA40B11B
:104F6C001B4801211B4A09F05AFF4FF0FF30BDE8E6
:104F7C00F0812846D5F87480268AEF8D0AF048FA1D
:104F8C00F8B1421E534253419B01228A9AB1BE4250
:104F9C00324628BF3A46E98D91420CD9B2FBF3F167
:104FAC0003FB11223AB994F91830002BBEBF637E73
:104FBC0043F0080363762146A869BDE8F0410BF085
:104FCC0094B998F80730E0E76FF01500CFE700BF11
:104FDC000C4201088E5A010870B5064680690C46D1
:104FEC000BF029F9054638B102212346094A0A4833
:104FFC0009F01EFF284670BD012214F0800F18BF67
:10500C0024F08004B36B18BF1034A2401A43B2636F
:10501C00F0E700BFA25A01080C42010870B5054622
:10502C0080690E460BF031F9044638B10221334643
:10503C00054A064809F0FCFE204670BD314605F1D4
:10504C0038000AF034FCF7E7B95A01080C420108A1
:10505C0070B50646EFF31181102282F31288BFF36C
:10506C006F8F1D4C236881F31188BFF36F8F5B68C2
:10507C0093F87030DB0705D4BDE870400A2200239A
:10508C0007F092BFEFF3118382F31288BFF36F8F97
:10509C00256865B983F31188BFF36F8F2368D3B18B
:1050AC003046BDE870400022002307F049BF61681C
:1050BC002A688D4208BF6260226083F31188BFF3B7
:1050CC006F8F686805F10801C36998472946034842
:1050DC000EF041F8E2E770BDC8240020E004002087
:1050EC0030B585B06C46054684E8060000230022E6
:1050FC00144803A907F064FB0246E8B994E80300DE
:10510C00039B5D60083383E80300EFF311801023E9
:10511C0083F31288BFF36F8F039B1A600A4A51689E
:10512C0061B9C2E9003380F31188BFF36F8F00229D
:10513C000023064807F004FF05B030BD0B60536038
:10514C00F1E700BFE0040020C8240020000000208C
:10515C00D3B5002600270446CDE90067054809F0C1
:10516C00E1FF28B1230658BF0023047658BF038201
:10517C0002B0D0BD840500201FB500230190CDE9FD
:10518C0002334FF0FF324FF0FF3301A902480EF00B
:10519C0040F805B05DF804FB2405002008B54B78F9
:1051AC00FF2B07D14B882BB9CB881BB9FFF7E4FF3A
:1051BC00002008BD0EF0C4FB6FF08502014B1A50A5
:1051CC00F6E700BF0C00000013B514464A780369DB
:1051DC00FE2A14D14A8892B9CA8882B193F8203039
:1051EC000BB1013BDBB201220DF1070104F10C0004
:1051FC008DF8073009F0DDFF002002B010BD0EF075
:10520C009FFB6FF08502014B1A50F5E70C00000074
:10521C001FB5CDE9010103924FF0FF324FF0FF3380
:10522C0001A903480DF0F5FF002005B05DF804FB63
:10523C002405002010B504690321074A074809F02A
:10524C00EEFD04F11803D3E8EF1F21F00101C3E8D0
:10525C00E21F002AF7D110BDE35A010824420108CD
:10526C002DE9F04383B000234FF0010805691C4C75
:10527C001C4E02AF28602B7785F8203005F12409ED
:10528C00B442234601D3002019E095F820201034B5
:10529C00CAB16C4688B01B6802AA1349C2E905134F
:1052AC004FF400739383114B42F8103F10480023C6
:1052BC004FF4E251FCF7C2FB6FF00B00A54604372C
:1052CC00BD46BDE8F08385F8208054F8043C484680
:1052DC00009354F8101C54E903230AF08BFCCFE71D
:1052EC004071010850710108EB5A010803000001DC
:1052FC002442010838B5044605690321094A0A48C5
:10530C0009F08DFD05F11803D3E8EF1F41F0010101
:10531C00C3E8E21F002AF7D12046BDE83840FFF76A
:10532C002BBF00BF025B0108244201082DE9F041AC
:10533C00044617460E4600680AF048FB31463A46CA
:10534C008046FFF705FFD4F87B300546DB1B014692
:10535C00C4F87B3020680AF0EAFA88B10B4A43465D
:10536C0001210B4809F064FD314620460AF0BDFBD3
:10537C002846FDF74BFE2046BDE8F0410AF098BBED
:10538C00A37F0133A377BDE8F08100BF095B01085F
:10539C00244201082DE9F74F044600680AF02BFB64
:1053AC00302706464FF02408E37F012B1FD82368D3
:1053BC00D3F810A0D3F804909AF8611017FB018170
:1053CC000AEB010B58460AF03BFC59460246019089
:1053DC0048460AF026FB9AF81F30054633B1019A6D
:1053EC005946121A48460AF01CFB054615B903B07B
:1053FC00BDE8F08F20460AF0D1FA2A4601468146D4
:10540C003046FFF7A5FE0546014620680AF08FFAE4
:10541C0088B10B4A334601210A4809F009FD284698
:10542C00FDF7F4FD494620460AF05FFB03B0BDE8EA
:10543C00F04F0AF03DBBE37F0133E377B4E700BFE5
:10544C00095B0108244201082DE9F04F89B002AF35
:10545C004FF0FF324FF0FF33A34807F10C0107F078
:10546C0047FAD7F80C803D69D8F81040002D40F071
:10547C00A68003219D4A9E4809F0D1FC04F1240624
:10548C00257794F820309D42C0F2938004F11803E4
:10549C00D3E8EF2F22F00202C3E8E12F0029F7D165
:1054AC00D3E8EF1F21F00401C3E8E21F002AF7D173
:1054BC0004F11803D3E8AF3FDB07C9D5237F022BD8
:1054CC0000F0E781032B00F0E081002B3AD1D7F8F4
:1054DC000CA0DAF81050EB7FA3BB6E4688B002AA82
:1054EC008449516184499161032142F8101F4FF4A2
:1054FC00C8517F48FCF7A2FA5046B5460AF07BFA31
:10550C00814628460AF04AFA4FF4007201460646D4
:10551C004846FFF71DFE8046014650460AF007FA42
:10552C00002800F0AE8101214B46744A704809F006
:10553C007FFC4046FDF76AFD314628460AF0D5FA55
:10554C000AF0B6FAA37F002B82D1237F012B40F007
:10555C00C581302304F1630694F86150304694F809
:10556C00621003FB054500F0B9FB243502463146B9
:10557C002369284600F0D0FB0646C4F88400284670
:10558C000AF054FB814628460AF055FB8046284613
:10559C000AF056FBE26D3044002A40F0838100286B
:1055AC0040F07B8128460AF072FB003818BF0120BE
:1055BC0074E130460AF031FB0135303661E7D8F83A
:1055CC000430D7F814902E7E7B60B9F1000F29D0EF
:1055DC002B8A19F1710F4648009308BF02213346FC
:1055EC0016BF0121464A474A09F02CFC40462E7E44
:1055FC000AF001FA864240F03381E37F5A1EE277CB
:10560C006A680AB1023BE377204669690AF06DFAD1
:10561C006B6813B159690AF068FA294678680AF080
:10562C009EF945E740460AF0E6F9B04240F0CE80DC
:10563C00227FD5F80CA0B5F810B0002A6AD1BBF1C6
:10564C001F0F48D1DAF800302F4A934243D151460C
:10565C0004F154030AF11C0251F8040B914243F873
:10566C00040BF9D10A881A808A7842219A70552342
:10567C0084F87330532384F8743084F87630A36D37
:10568C00E26DC4F877300023C4F8803094F86030B1
:10569C00C4F87B209A0684F875100FD194F8612019
:1056AC0094F820309A4209D294F86230013B0F2BC7
:1056BC0004D8012384F87F30237797E70321134A1A
:1056CC000B4809F0ACFB20680AF08BF9022384F834
:1056DC007F300423F0E703210D4A054809F09FFBB6
:1056EC0020460AF0E5F981E7240500202E5B01082D
:1056FC00244201080A5C01082C5C0108095B0108C2
:10570C004B5B01086F5B010855534243905B0108EA
:10571C00A35B0108032A7FF469AF302294F861601F
:10572C0002FB0646D4F8802024365A44C4F8802064
:10573C00BBF1000F16D030460AF082FA90B15146F8
:10574C005A4630460AF08FFA824638BB02215B4635
:10575C008F4A904809F06CFBD4F87B30A3EB0A031A
:10576C00C4F87B30D4F88020E36D9A420DD23046D9
:10577C000AF066FA00287FF439AFD4F88020E36D84
:10578C009A4202D220680AF042F930460AF07FFAB7
:10579C00003818BF012084F87F009AE7C7F800D0C2
:1057AC008AB002A97C4A05234A617C4AC1F820B020
:1057BC00C1E906200A4642F8103F4FF424514B46EB
:1057CC007448FCF73BF9D7F800D0C5E740462E7E6D
:1057DC000AF0FCF886427FF409AF237F2A8A052B56
:1057EC0013D16E4688B002AA6D4B53616D4B936119
:1057FC00032342F8103F4FF4C8514B466548FCF761
:10580C001DF9B54684F81C90F0E6022B7FF4EEAE41
:10581C004FF03009D4F8803094F861601344C4F828
:10582C00803023681969D3F804A091F8613009FB22
:10583C00031101F1240B58460AF002FA59460246AC
:10584C0050460AF0EEF800287FF4D0AED4F87B3046
:10585C0013B120680AF0C5F809FB0640243095E71F
:10586C0040462E7E0AF0B2F886427FF4CDAEA37F7E
:10587C005A1EA2776A68002A3FF4C6AE023BA37791
:10588C00C2E6EB7F0133EB775CE62046FFF782FD47
:10589C0058E620460AF039F954E6022084F87F00D5
:1058AC0004231AE094F9601040B90029206802DA48
:1058BC000AF097F876E60AF0AAF873E6002914DAEB
:1058CC00904202D8B9F1000F06D120680AF089F88D
:1058DC00022384F87F30E3E702232377237F022B14
:1058EC000ED120460AF011F9B2E5904202D8B8F177
:1058FC00000F03D120680AF08AF8E9E70323ECE7EC
:10590C00032B03D12046FFF745FDA1E5042B7FF4C3
:10591C009FADA37F2BB10121234A1E4809F07FFACA
:10592C0096E520680AF052F8804620460AF036F8D0
:10593C000546024604F1730304F17F0153F8040B8E
:10594C008B4242F8040BF9D11B7829461370404660
:10595C000D22FFF7FDFB06460146206809F0E7FF24
:10596C0078B1124A434601210A4809F061FA3046DF
:10597C00FDF74CFB294620460AF0B7F80AF098F8D8
:10598C0066E5A37F0133A3770523237760E500BF8A
:10599C00AF5B010824420108D55B01084D5C01088E
:1059AC00FD5B01083A5C01081A5C0108095B0108FF
:1059BC00802938B50D46144621D083290DD019BB4A
:1059CC008023537183230320117193710023E070A2
:1059DC0023706570A370043038BD0223137101234A
:1059EC005371002393710A23D37108224168A018C4
:1059FC000DF02CFF064B0E201B882382E6E7044B90
:105A0C0002201B889380E1E76FF08500E4E700BF7C
:105A1C00D148010881420B4607B509D302210D4A32
:105A2C000D4809F005FA6FF0150003B05DF804FBA2
:105A3C006AB101391144814201D28B4207D902214A
:105A4C00009305481346054A09F0FCF9EBE70020E2
:105A5C00EBE700BF6E5C010824420108855C01087D
:105A6C002DE9F84FD0F818A0436A524528BF52468A
:105A7C0004468846B2FBF3F500274FF4805BDFF851
:105A8C007490EDB1626A4146BBFBF2F6AE4228BFA0
:105A9C002E46484672430DF095FE616A71434846A6
:105AAC000AF093FE33464946E269206809F0C3FACE
:105ABC00034690B10121104A104809F0B9F93FB1E1
:105ACC00BA4513D1002205212068FCF7ADFA01E09C
:105ADC000B4BA3623846BDE8F88F636AE2697343E7
:105AEC0032449844E261AD1B1F44CAE7A3699F424C
:105AFC00F0D1E7E780060020AF5C010824420108E2
:105B0C000203000C2DE9F04F83B0836904469A42DE
:105B1C0028BF1A46436A0E46B2FBF3F84FF0000951
:105B2C00DFF8A8A0DFF8A8B000AFB8F1000F14D0D0
:105B3C004FF48055636A5146B5FBF3F5454528BFD4
:105B4C004546E2692B46206809F05EFA034648B1E7
:105B5C000121204A204809F06BF948460C37BD4614
:105B6C00BDE8F08F616A694350460AF032FE626A02
:105B7C00514630466A430DF025FEE36959EA0303AA
:105B8C0019D1C7F804D08AB096F800C0707896F88E
:105B9C00FE1196F8FF316A4653620623C2E90701EB
:105BAC00C2E905BC4FF443510B4842F8103F0AF0D0
:105BBC001EF8D7F804D0636AE2696B432A441E448A
:105BCC00E261A8EB05089944AFE700BF800600200E
:105BDC00E85C0108CC5C010824420108F8B50646D3
:105BEC0000AF044656F8200B09F000FA05460321D5
:105BFC000346314A314809F01BF93246012120682D
:105C0C00FCF712FA40B101212D4A2C4809F007F992
:105C1C0000236FF0040523620221206804F12402A2
:105C2C00FCF702FA40B10121264A244809F0F7F8A2
:105C3C0000236FF0040563626E46D4E908138AB042
:105C4C006A46D3614FF48053136205231E48C2E9A0
:105C5C00050142F8103F4FF42351184809F0C7FFD3
:105C6C00626AB546D2B9194A0121144809F0D7F82D
:105C7C006FF00405636AB3F5805F06D90121144AFD
:105C8C000E4809F0CCF86FF00B0503212B46114A96
:105C9C000A4809F0CDF82846BD46F8BDC2F3080302
:105CAC00002BE7D04FF40073B3FBF2F35343B3F57F
:105CBC00007FDFD0084AD7E7055D010824420108C0
